:020000040800F2
:10200000605500209126000899B900089DB9000884
:1020100000000000000000000000000000000000C0
:10202000000000000000000000000000B5B900083A
:102030000000000000000000B7B90008B9B90008AE
:10204000E1260008E1260008E1260008E126000854
:10205000E1260008E1260008E1260008E126000844
:1020600000000000E1260008E1260008E9B90008A8
:10207000E1260008E1260008E12600080000000033
:10208000E1260008E126000800000000E126000823
:10209000E1260008E1260008E1260008E126000804
:1020A00000000000E1260008E1260008C9B9000888
:1020B000D9B90008E1260008000000000000000077
:1020C00010B5064C2378002B07D1054B002B02D00E
:1020D000044800E000BF0123237010BD2810002039
:1020E00000000000F4100108044B10B5002B03D0D1
:1020F0000349044800E000BF10BDC04600000000D6
:102100002C100020F410010802B47146490849005F
:10211000095649008E4402BC7047C04602B471465D
:1021200049084900095C49008E4402BC7047C0461A
:1021300003B47146490840004900095E49008E44D5
:1021400003BC704703B47146490840004900095A6E
:1021500049008E4403BC7047002243088B4274D36D
:1021600003098B425FD3030A8B4244D3030B8B4298
:1021700028D3030C8B420DD3FF22090212BA030CA1
:102180008B4202D31212090265D0030B8B4219D382
:1021900000E0090AC30B8B4201D3CB03C01A5241A2
:1021A000830B8B4201D38B03C01A5241430B8B42EA
:1021B00001D34B03C01A5241030B8B4201D30B03D3
:1021C000C01A5241C30A8B4201D3CB02C01A5241FA
:1021D000830A8B4201D38B02C01A5241430A8B42BD
:1021E00001D34B02C01A5241030A8B4201D30B02A6
:1021F000C01A5241CDD2C3098B4201D3CB01C01AC0
:10220000524183098B4201D38B01C01A52414309C9
:102210008B4201D34B01C01A524103098B4201D3B7
:102220000B01C01A5241C3088B4201D3CB00C01A24
:10223000524183088B4201D38B00C01A524143089C
:102240008B4201D34B00C01A5241411A00D20146C1
:10225000524110467047FFE701B5002000F0F0F84A
:1022600002BDC0460029F7D076E7704703460B430E
:102270007FD4002243088B4274D303098B425FD37F
:10228000030A8B4244D3030B8B4228D3030C8B42AB
:102290000DD3FF22090212BA030C8B4202D3121291
:1022A000090265D0030B8B4219D300E0090AC30B66
:1022B0008B4201D3CB03C01A5241830B8B4201D313
:1022C0008B03C01A5241430B8B4201D34B03C01AFC
:1022D0005241030B8B4201D30B03C01A5241C30A74
:1022E0008B4201D3CB02C01A5241830A8B4201D3E5
:1022F0008B02C01A5241430A8B4201D34B02C01ACF
:102300005241030A8B4201D30B02C01A5241CDD273
:10231000C3098B4201D3CB01C01A524183098B42BE
:1023200001D38B01C01A524143098B4201D34B01A7
:10233000C01A524103098B4201D30B01C01A52410A
:10234000C3088B4201D3CB00C01A524183088B4291
:1023500001D38B00C01A524143088B4201D34B007A
:10236000C01A5241411A00D20146524110467047EC
:102370005DE0CA0F00D04942031000D340425340F1
:1023800000229C4603098B422DD3030A8B4212D3B1
:10239000FC22890112BA030A8B420CD389019211E3
:1023A0008B4208D3890192118B4204D389013AD020
:1023B000921100E08909C3098B4201D3CB01C01AF5
:1023C000524183098B4201D38B01C01A5241430908
:1023D0008B4201D34B01C01A524103098B4201D3F6
:1023E0000B01C01A5241C3088B4201D3CB00C01A63
:1023F000524183088B4201D38B00C01A5241D9D27B
:1024000043088B4201D34B00C01A5241411A00D2FB
:102410000146634652415B10104601D34042002BF7
:1024200000D54942704763465B1000D3404201B576
:10243000002000F005F802BD0029F8D016E770472B
:102440007047C0460023C25C0133002AFBD1581EEE
:102450007047000070B50D4E0D4DAD1BAD1006D090
:102460000024A300F35801349847A542F9D10EF097
:1024700041FE084E084DAD1BAD1006D00024A30050
:10248000F35801349847A542F9D170BDB42B010827
:10249000B42B0108B42B0108BC2B0108F0B583074D
:1024A00046D0541E002A42D0CEB20200032502E0DC
:1024B0001A00013C3BD3531C16702B42F8D1032C5D
:1024C0002DD9FF220A40150215432A0415430F2C6B
:1024D00016D92700103F3F093E01B4461E001A00DE
:1024E00010366644156055609560D5601032B24272
:1024F000F8D10F2201373F01DB191440032C0ED90C
:10250000261FB608B700BC461A001F1D674420C22C
:10251000BA42FCD103220136B6009B191440002CAC
:1025200005D0C9B21C19197001339C42FBD1F0BD12
:1025300014000300C3E7C046034B10B5002B02D0C4
:10254000024800F005F810BD0000000061250008F9
:1025500010B5010000230022002000F01FF810BD7C
:1025600070B5094B094CE41AA41009D0084AA51803
:10257000AD00ED182B68013C9847043D002CF9D1C3
:102580000EF0BEFD70BDC046BC2B0108C02B01087B
:10259000FFFFFF3F7047C0467047C046F0B54E464C
:1025A0004546DE465746E0B5364D83B006002868FE
:1025B00098460F009146FFF7EDFF334B1C68A423AC
:1025C0005B00E058002852D043681F2B13DC5A1CD4
:1025D0000192002E28D1019A02339B0042601F50C5
:1025E0002868FFF7D9FF002003B03CBC904699460D
:1025F000A246AB46F0BD254B002B3DD0C820400085
:1026000000E000BF002837D0A42200235200A158C8
:1026100043600160A0504032835004328350013344
:1026200001930023002ED6D09A00924682444A4657
:10263000882154466250C4225200914681444A4641
:102640008739994012688B460A4394464A46614648
:102650001160842241465200A150022EBBD10200DB
:102660005C468D32FF3211680C431460B3E72000E2
:102670004D30FF30E050A7E72868FFF78DFF0120BD
:102680004042B1E73004002058110108000000006A
:102690000D4885460D480E490E4A002302E0D458E5
:1026A000C4500433C4188C42F9D30B4A0B4C00239A
:1026B00001E013600432A242FBD300F013F8FFF7ED
:1026C000C9FE0DF069FFFEE7605500200000002004
:1026D000EC090020C02B010800100020443200202B
:1026E000FEE700000122344B3448196882B01143E0
:1026F00019605968014059601968314801401960F2
:10270000196830480140196059682F4801400F206E
:102710005960D96A8143D962196B2C480140196309
:10272000596B573091435963002199600091019191
:102730001968FF300A43A0211A60C9011A680240D3
:102740000192009A01320092019A002A02D1009A65
:102750008A42F3D102211A680A4000D00122019274
:10276000019A012A26D11221194A11605A68194981
:102770005A605A685A605A680A405A60A2225968D8
:1027800092030A435A608022196852040A431A606D
:102790008022920419681142FCD003215A688A43AE
:1027A0005A60022259680A430C215A605A680A404A
:1027B000082AFBD102B07047001002400CB8FFF8A5
:1027C000FFFFF6FEFFFFFBFFFFFFC0FFACFEFFFFBA
:1027D00000200240FF7FC0FF074B10B5984209D18F
:1027E00080200121800000F01BFA80200021800061
:1027F00000F016FA10BDC0460024014010B50B6869
:102800008C68C2682343CC6823430C6923434C691A
:102810002343044C224013430A7952031343C360F9
:1028200010BDC04603D2FFFF002303600371836025
:10283000C36003614361704782680123002900D1AE
:102840000223134383607047836A194381624261A4
:1028500070478022816812060A438260F0220300DA
:102860001202013A9968002A01D00029F9DB002000
:102870009A68824200DB186C704704238268134315
:1028800083607047006C80B270470000CB0107D5B1
:102890008068044B18400140481E8141C8B270470F
:1028A0000068F8E7FFFFFFFE016070470368184A01
:1028B000134003600023036043608360C360154BD3
:1028C000984205D10F23144A51680B435360704757
:1028D000124B984203D1104AF0235168F5E7104B90
:1028E000984204D1F0230C4A1B015168EDE70D4BCF
:1028F000984204D1F023084A1B025168E5E70A4BCD
:102900009842E4D1F023044A1B035168DDE7C04636
:10291000FEFF000008000240000002401C000240D0
:1029200030000240440002405800024002680D4B53
:1029300010B51A400C6A8B6823430C6923434C6919
:1029400023438C692343CC6923434C6A23438C6A19
:10295000234313430360CB6843600B6883604B6879
:10296000C36010BD0F80FFFF002904D0012302685F
:102970001343036070470368014A1340F9E7C046F8
:10298000FEFF00000368002A02D01943016070476F
:102990008B430360FBE700000023C20001D4034B1C
:1029A0001B681840431E9841C0B2704700000240A7
:1029B000C30001D4014B58607047C046000002407C
:1029C00010B5FFF7E9FF10BDF7B503220B68944679
:1029D0000193002301279F40019A3A4097422CD14E
:1029E00064465D00AC400A79E443561E0092012E15
:1029F00011D8866826408660866832004E79AE40DF
:102A0000164386608688BE4386808F7986889F407D
:102A10003E43B6B28680009A0668AA4034400460FD
:102A2000046822436446AC400260C268A243C260AC
:102A3000CA79C468AA402243C2600133102BC9D1AD
:102A4000F7BD0000044B01220360002342710371B3
:102A50008371C3717047C046FFFF0000008A0840C1
:102A6000411E8841C0B27047008A80B270478161C0
:102A700070470185704781827047072310B50F2486
:102A80000B409B009C409A40C90889004018016A8D
:102A9000A1430162016A0A43026210BD1F23F0B51F
:102AA0000124027813409C408378002B17D0032622
:102AB000FF2791083240B2403E00C0259640094BA6
:102AC0008900C918AD004B59B3431E0043789B01E0
:102AD0003B40934033434B51024B1C60F0BD024BD3
:102AE000DC67FBE700E100E004E100E00C2270B5E8
:102AF000334D04006B681340082B05D093423DD042
:102B0000304B236000200CE00F23C0226868696806
:102B1000800C18405202861C114228D12A4870436A
:102B2000206021686B680A00284E1B061B0FF35CAF
:102B3000DA40130062606A685205520FB25CD340FB
:102B4000A3602A6BD2051BD4214AE2602A6BD2060D
:102B50001DD41C4A626103222E6B164219D1A36157
:102B6000E3612B6B1B0628D41A4B636270BDE96AC4
:102B7000144819400131FFF7EFFAD0E7154BC0E7D1
:102B80006A68520401D45A08DFE79A08DDE76161F8
:102B9000E1E72E6B1640012E01D1A161E0E7296B20
:102BA0001140022903D180221202A261D8E7296BC9
:102BB0000A40032AD4D1034AF7E76062D6E7C04649
:102BC0000010024000127A0000093D003804002085
:102BD000809FD500006CDC02044B5A69002902D0AA
:102BE00010435861704782435A61FBE7001002406E
:102BF000044B9A69002902D01043986170478243C0
:102C00009A61FBE700100240044BDA69002902D008
:102C10001043D86170478243DA61FBE7001002403D
:102C2000044BDA68002902D01043D8607047824311
:102C3000DA60FBE700100240044B1A69002902D059
:102C400010431861704782431A61FBE7001002408D
:102C50000E4B10B598420AD1802001214001FFF7A8
:102C6000DFFF802000214001FFF7DAFF10BD084B95
:102C70009842FBD180200121C001FFF7DDFF8020B9
:102C80000021C001FFF7D8FFF0E7C0460030014047
:102C900000380040C12302889B0110B51A40CC893E
:102CA0000B882343CC8823430C8923434C8923433B
:102CB0008C892343134303808388074A13408A88FF
:102CC0001343042283800B8A0382038893434A8838
:102CD0001343038010BDC046FFF0FFFF402302886E
:102CE000002902D01343038070479A430280FBE718
:102CF00001737047007BC0B2704700890840411ED5
:102D00008841C0B27047000030B50388154C9BB2B3
:102D1000A04206D08022D205904202D0124A9042B0
:102D200003D1702293434A881343104A904203D040
:102D30000F4A0D8913402B4303804B68C3620B88F5
:102D40000385A04208D00B4B984205D00A4B98420D
:102D500002D00A4B984201D18B7A038601238382E9
:102D600030BDC046002C014000040040001000406F
:102D7000FFFCFFFF004001400044014000480140CB
:102D800001230288002902D01343038070479A432D
:102D90000280FBE70630C38F002904D08022120294
:102DA0001343C38770475B045B0CFAE7038C124A3A
:102DB00070B513400384038C104A8588848B8E89F8
:102DC00014400A88ADB2120214430D4AA4B2134053
:102DD0004A883243120313430A4A9BB2904205D1F8
:102DE000094A2A400D8AAD011543ADB28A68858033
:102DF00084830264038470BDFFEFFFFFFF8CFFFF3D
:102E0000FFDFFFFF002C0140FFBFFFFF8389002A87
:102E100002D01943818170478B438381FBE71143C3
:102E200048300180704710B5FFF7F0FF10BD00007B
:102E3000012230B50D0003688BB0934303604368F3
:102E40001D4A040013408A681343436003681B4A09
:102E50001A404B68C9680B4329690B43134303604D
:102E60008368174A13406A69134383606846FFF713
:102E70003DFE144B06989C4204D0134B00209C420C
:102E800000D1079823682D681B0400D54000290055
:102E9000FFF7E8F900236D08A9425B41C0182368D9
:102EA0001B0404D5094A03075B0F1040184380B286
:102EB000A0810BB030BDC046FFCFFFFFF3E9FFFF9D
:102EC000FFFCFFFF0038014000440040F0FF00001D
:102ED00001230268002902D01343036070479A431C
:102EE0000260FBE7808CC005C00D7047012310B560
:102EF0008CB2C9B2240A8B40022C06D10430002ABD
:102F000007D002681343036010BD032CF7D10830CB
:102F1000F5E702689A430260F6E7012310B58AB22A
:102F2000CCB2120AA340012A0DD102681340C26933
:102F30000020834206D0090C013088401040431E17
:102F40009841C0B210BD022A01D14268EEE7826802
:102F5000ECE770477047000010B51A2200210348C3
:102F6000FFF79CFAFF22024B1A7010BD501300208D
:102F70007013002070B50500FFF7EEFF01200CF084
:102F80009DFB0DF035F80CF0C9FD0D4C2378022B9C
:102F900005D10AF089F9002D01D00AF05DF92378F6
:102FA000012B02D10AF07EFE70BD0E3B022BFBD836
:102FB0000023237006F0AAF801F084F8F4E7C04675
:102FC0007413002010B5144A137C002B22D013492F
:102FD00004200B781C008443012C1BD0082B19D033
:102FE0004B8B002B16D00E4800780238012811D9DF
:102FF0000C48007801280DD1013B9BB24B83002B7C
:1030000008D1D37E002B05D1D07605F063FC1D20BE
:1030100008F0C4F810BDC046FA1300207413002055
:10302000B81300206D13002010B5084BDA7E002A7B
:1030300008D000221E20DA7608F0B0F8012005F052
:1030400049FC10BD01221D20DA76F5E7FA130020B5
:1030500010B5FFF781FF0DF02BFA064C0321207904
:103060000130FFF7E9F9217106F050F8032007F06D
:10307000C5FC10BDFA13002010B5FFF76DFF0DF071
:1030800017FAF522114B5200995CA73AFF3A4A43CE
:103090009B180833D87F002802D107F0AFFC10BD81
:1030A0000B4C00290BD1607B03310130FFF7C4F9D1
:1030B0006173032007F0A2FC05F07EFFEFE7A07B21
:1030C00003210130FFF7B8F9A173F2E7581100208E
:1030D000FA13002010B5074B3A331A78002A07D1AB
:1030E00001321A7005F016FC032007F087FC10BDB2
:1030F0000022F6E7FA130020F8B5244D2B003A33EE
:103100001B78002B08D0224B224C1B78022B04D1B9
:103110000F22E27000222271F8BD1F4E3378012B7E
:1031200002D1A37B012BF3D008F05CF80028EFD18B
:103130001A4B1B78002BEBD12378002BE8D1237995
:10314000E2781B021343E7D108F06AFAAA78144B1D
:103150009B1832785B78022A01D1083BDBB28342AC
:10316000DAD20135EB7F0025053363711B0AA371A9
:10317000012AD1D100F048FF3378022BCCD00C22A9
:103180002571E2706571A571C6E7C046FA1300208B
:10319000B8130020741300206D130020F02F0020BE
:1031A000CF15010870B5FFF7D7FE0DF081F9F522B4
:1031B00001200F4B52009C5CA73AFF3A62439A18D9
:1031C000951CE97F083201310140E977D27F002A5E
:1031D0000BD164011B1998331A780F241100214078
:1031E0000918A24301400A431A7005F0E5FE70BDBC
:1031F000581100202C4B70B51C78002C15D12B4D8C
:10320000AB7F012B3ED102290FD12100200002F01B
:1032100027FA02F009FE02F091FD200008F0B2FB4F
:10322000FF22234BAC779C701A7070BD002009F010
:1032300013FBFAE70120FAE70220F8E70320F6E79C
:103240000420F4E70520F2E70620F0E70720EEE788
:103250000820ECE70920EAE70A20E8E70B20E6E788
:103260000C20E4E70D20E2E70E20E0E70F20DEE788
:10327000104B5A7F032A01D903225A77587F113005
:10328000C0B2D4E70229D0D001381428CDD8FEF737
:103290003BFFEFE5CCE3CCE3E5E7E9CDD1D3D5D7F0
:1032A000D9DBDDDFE1EBED00F02F0020741300200F
:1032B000A6180020FA130020CB08C01807231940D5
:1032C000063B8B40027813430370704710B503F040
:1032D00045FD03F01FFC03F0F7FD09F081FA03F050
:1032E0006DFF09F0D5FD10BD10B5002A02D0FFF723
:1032F000E3FF10BDCB08C0180723012219408A4004
:10330000037893430370F4E702000120FA2A07D8F8
:103310000020824204D06930904280414042023015
:1033200070470000174910B5FEF716FF164A030054
:1033300081181822FF32914204D8144B1879431E89
:10334000984110BD124A1189814203D85189012048
:103350009942F6D89189994203D8D189012099429E
:10336000EFD81188994203D8518801209942E8D8B2
:10337000918800209942E4D8D0888342804140421D
:10338000DFE7C04610270000C8FBFFFFAC18002095
:10339000B4180020072210B50240C4080120064BD3
:1033A00090401B19002903D0F0331B78184010BD42
:1033B0006E33FF33F9E7C0465811002070B5013075
:1033C0000D000B49FFF738F8094E8CB22900200098
:1033D000FFF7E0FF002809D1601C0549FFF72CF832
:1033E000013EB6B28CB2002EF0D1024C200070BD6E
:1033F000E7030000FFFF000070B50D00002813D0A8
:10340000013884B20A4E29002000FFF7C3FF0028CC
:1034100008D1002C0AD0013CA4B2013EB6B2002E65
:10342000F1D1044C200070BD034CEBE7024CF4E7F3
:10343000E7030000FFFF0000E6030000F0B57D2277
:1034400087B000214148FFF729F87D22002140483C
:10345000FFF724F8EE23F72100243E4AFF3349000A
:10346000D45454540293A3B2019305AD63011800E0
:1034700004222900039303F082F82B78FF2B32D02B
:10348000EB78002B2FD00020642604ABDA1DDD1C66
:103490000A27117870430B097B43053739405918C7
:1034A000C9B21170013A08189542F1D1FFF73AFFFD
:1034B0000500012817D101992448FFF7FDFE039864
:1034C000029B244E05AF0F302A003900F55403F05B
:1034D00056F83B785B0706D501991D48FFF7ECFECF
:1034E000F7235B00F5541C4B01349C42BBD1194CB3
:1034F000029AA25C012A27D1F032FF32A15A9942E6
:1035000001D90021A152F9225200A15A994201D9B0
:103510000023A352F8256D00665B00213000FFF701
:1035200039FF011E03D13000FFF748FF6053F92532
:103530006D00665B00213000FFF72CFF011E03D1F8
:103540003000FFF73BFF605307B0F0BDC51200200D
:103550004812002058110020E70300007FB501AC9D
:103560000E0015000749020020000DF0E7F80023C7
:10357000DAB2954200D87FBDE25C303AF2540133B2
:10358000F6E7C046E4150108002330B5074C9A0061
:1035900012191588D9B2854202D85288824203D8BE
:1035A0000133042BF3D10021080030BDB4180020F2
:1035B000F523442209495B00CB5C5A438B18180061
:1035C000283000785258012803D1D96A8A18DA6065
:1035D00070470228FBD1D96A521AF8E75811002027
:1035E00070B5F52544230B4C6D00625D53435101CA
:1035F000E21810003030007888310919002807D00F
:10360000D0680822FFF7AAFF605D03F0BDFA70BD25
:103610001859F6E75811002010B50CF049FFF522B3
:10362000094B5200995C00290CD000219954995CF7
:1036300044224A439B18054A136005F0BDFC00F084
:1036400041FD10BD0121F1E7581100205411002067
:10365000F52310B507495B00CA5CA73BFF3B53430A
:10366000CA18100000240C3330305B1804709261CB
:10367000D36110BD58110020F7B50190FFF7E8FFA6
:10368000F5234425274C5B00E75C274A7D432B59F3
:1036900026490093631929331B785B00985A009BD5
:1036A000C0182851FEF758FD019B0600002B0FD0D3
:1036B0001F4BDA8D998D0A235A43824202D94B431C
:1036C000834214D944231B4A7B434A43E2500EE011
:1036D00016490098FEF740FD174B1B79012B11D1BD
:1036E000164B98420ED89E4201D9154B2B51FFF72D
:1036F0005FFFFFF775FF00F0E5FC05F05DFC09F0EA
:1037000053FAF7BD80B2FFF73FFF40000D4A431C5C
:103710005B009B5AB342EAD84423043080007B43C9
:103720008258D3E758110020EA150108102700003D
:10373000FA130020A0860100AC1800204F050000FD
:1037400080CBA400B4180020F0B585B00390FFF73B
:103750007FFFF5234425274C5B00E35C264A5D434D
:1037600000932B5925490193631929331B785B007A
:103770009B5A0293029A019B9F1A2F513800FEF721
:10378000EBFC039B0600002B1DD00A221C4BD98D9D
:103790009B8D5343834202D84A43824207D244223C
:1037A000009B5A43174B4B4302995B1AA350FFF7F8
:1037B000FFFEFFF715FF00F085FC05F0FDFB09F0AB
:1037C000F3F905B0F0BD0D490198FEF7C5FC80B2D4
:1037D000FFF7DAFE0C4943008000425A9642E6D2D7
:1037E0005A1D043392009B0052585B58D31ADB19C0
:1037F0002B51DCE758110020EA15010810270000C2
:10380000FA130020A0860100B418002070B504004F
:10381000FFF71EFF6378012B08D1A379302B05D168
:10382000FFF79AFB002007F0E9F870BD05F0CEFC29
:103830006378E3185D79244B303DD879EDB20028E8
:1038400035D107F0DBF86378062BEED10CF030FEB3
:10385000002321000A2662780C31A2189371A21D60
:103860007343303B1800137801321B188A42F7D19A
:103870000022627064245C43092D1CD1193C200095
:10388000FFF750FD00281AD0F523104A5B00D15CE9
:10389000A73BFF3B4B439C50FFF78AFEFFF7A0FE80
:1038A00000F010FC05F088FB09F07EF9BDE7280068
:1038B00007F006FAC7E7064B5B5D1C19DFE7052139
:1038C0003F2007F0DBFCEBE7FA1300205811002043
:1038D000DA150108F8B5F5274424FFF73DFB0CF095
:1038E000E7FD1D4D7F00EE5D6643AE1933002833C2
:1038F0001B78002B03D1072007F080F8F8BDF06893
:10390000FFF710FD012821D1303630780321013036
:10391000FEF792FD06200E0007F070F8EB5D6343A2
:10392000EA18110030310E70012E08D10C335B19EA
:103930009361D26100F0C6FB05F0E8FBDEE792611F
:10394000022EF6D00C335B19D361F3E7FFF780FE4C
:10395000002007F053F8EDE758110020030010B5E0
:103960000A21002408334C430278013014198342A1
:10397000F9D12000FFF7D6FC002801D1014B1C69CA
:10398000200010BDB418002000230A2210B5C11D6C
:10399000534304780130E3188842F9D15A431000A8
:1039A00010BD00004423F0B543439B4C87B0E3189F
:1039B0001A000090002030321070EE22FF32A25C1C
:1039C000824200D099E00833DA774423009A5A43C0
:1039D000A3180833DB7F0292012B00D0A9E0142248
:1039E000009E5643C836A61900290CD06D0131003F
:1039F000280002F0C4FD2800029914303231611809
:103A00000C2202F0BCFD00230A250F20F15C0A09FC
:103A10006A430140511804AA99540133082BF5D187
:103A200013000027511E642203330197019D18786B
:103A3000554328180190380050431F79013BC7199E
:103A40009942F3D144251420009B5D43019B6351AF
:103A5000009B6519584324182300EF60D0331E885B
:103A600003933000FFF750FC23002871AE60D2337F
:103A70001E883000FFF748FC039B28746E61DB79D9
:103A80006A1C5B06DB0FD37723000F22D6331B782B
:103A9000A91C1A40CA772200D73211780122E81CEB
:103AA0001140C1771B09291DCB77039B691DDB7969
:103AB0009B069B0FCB77039BA91DDB791B07DB0FB5
:103AC000CB772100D4310978EB1DD977D534217813
:103AD0002A331970019B2835BB4222D92A7044220F
:103AE000009B4D495A43029B8A185B189361029BC5
:103AF0000C335B18D36107B0F0BD484B009A9B7E36
:103B0000002A07D022001B096B321370F9235B00D7
:103B1000E55A5AE722001B071B0F0832D377F82318
:103B2000F5E7019BBB4202D202232B70D7E70023AB
:103B3000FBE7002902D0009803F090F8009B442591
:103B40005B011800883020180193FFF707FF009BE6
:103B500006005D43019B6051E318039390331F8877
:103B600065193800FFF7D0FB039B2871AF609633CF
:103B70001B78019803935F092B009C3028331F703A
:103B80002018FFF701FFE862012F41D13618EE60DF
:103B9000019B214DEC18230092331E883000FFF763
:103BA000B3FB44232100009A98315343EB18187457
:103BB0005E614A78581C5206D20FC2770A780F21EC
:103BC000981C1140C1772100012699310978D81C31
:103BD0003140C1770320191D1209CA77009A591D77
:103BE00005325201AD18EA78039D0240CA770B49AD
:103BF0009A1DC87B9B34D0771F2215401A00D81D10
:103C0000C577207829321070CA7A31331A7066E786
:103C1000022FBCD1361ABAE758110020FA1300203F
:103C2000F8B5F5270D00FA21104C7F00E35D49003F
:103C3000F833615A5B0006001953002D01D0FFF7DD
:103C40008BF9E05D0121FFF7ADFE002E0AD1002DBA
:103C500006D1FA235B00E05A0130C0B207F054F8F5
:103C600003F03AF800F02EFAF8BDC04658110020D3
:103C7000F8B5FA2605000C4C7600A05B0F00290071
:103C8000FFF79CFB094BA053984204D1EE2300227E
:103C9000FF33E254F8BD39002800FFF7C1FF05F0FB
:103CA00035FA08F081FFF5E758110020FFFF00000A
:103CB000F8B5FA2605000C4C7600A05B0F00290031
:103CC000FFF79AFB094BA053984204D1EE23002240
:103CD000FF33E254F8BD39002800FFF7A1FF05F0DB
:103CE00015FA08F061FFF5E758110020FFFF00000A
:103CF00070B5040005F030FA1A4BD879002820D1AD
:103D000006F07CFE6378032B1AD100250CF0D0FB63
:103D10006378A01DE3189D710CF0D6FC124B01389E
:103D200084B29C4205D829002000FFF733FBA8424B
:103D30000FD1002006F062FEFFF70EF905F0E6F95C
:103D400070BD6378E31858793038C0B206F0B8FF18
:103D5000D8E7FA23054A5B0001212800D452FFF777
:103D60005FFFEBE7FA130020E60300005811002084
:103D700070B50CF09DFBF5231C4C5B00E05CA73B91
:103D8000FF3B4343E3180833DA7F002A24D1013292
:103D9000DA77174A2300002820D00F256B331978D3
:103DA000937E09012B400B4393760121FFF7FAFD27
:103DB00005F002F900F086F9F5235B00E25CA73B11
:103DC000FF3B5343E4180834E37F3320002B00D03B
:103DD000322007F0E3F970BD0022D9E70F25083340
:103DE000D97F937E2940AB43DDE7C04658110020C0
:103DF000FA13002010B501210020FFF7D3FD0121A7
:103E00000800FFF7CFFDF523054A5B00D15CA73B17
:103E1000FF3B4B439B18034A136005F077F910BD35
:103E20005811002054110020F6220C4B10B50C49FB
:103E30005200984202D800238B5410BD094B0A4C03
:103E4000C3189BB2A34201D80223F5E7074BC01861
:103E500080B20323A042EFD90123EDE7CF07000092
:103E60005811002030F8FFFFE703000048F4FFFF7F
:103E700070B5114AD378002B05D0104B1049C318E8
:103E800001248B4216D90F4B002438331D78012DA5
:103E900010D85378A3420DD00B49FEF75DF90C23DF
:103EA0005D430A4B5B191A89824203D85B899842A9
:103EB00080414442200070BDAC180020009423FDD6
:103EC00000093D007413002010270000101601089F
:103ED00070B52E490500FEF73FF9040080B2FFF7E8
:103EE000A3FF2800FFF7C4FF01284ED0284B38332A
:103EF0001D78284B012D0CD8274A5078002808D16E
:103F00000C226A439A181189A14202D85289A2420E
:103F10003BD80C2169435A5AA24204D859184A88FE
:103F20000120A24231D80C22110069435918888817
:103F3000A04203D8C9880120A14226D86A439B1811
:103F40001A89A24203D85B890120A3421DD8134BD2
:103F50009A88A24203D8DA880120A24215D89A8909
:103F6000A24203D8DA890120A2420ED81A89A242BD
:103F700003D85A890120A24207D81A880020A242F9
:103F800003D8588884428041404270BD1027000009
:103F90007413002010160108AC180020B41800207B
:103FA00070B582260125012001F054FA302001F07D
:103FB000EFFB002001F0EAFF012007F0E3FC114CC9
:103FC00076006680657002F0E7F800280BD00020CC
:103FD00007F0D8FC1E20FEF7BDFF01F0AFFE002069
:103FE00001F038FA70BD608880B20028EBD16378A8
:103FF000012B04D1607001F0CBFB6680E3E76570B4
:104000003020F8E7481D002070B508F0B7FD08F033
:1040100059FB0020FEF7AEFF234C2378042B0BD175
:10402000224D2B78042B07D001210020FFF7F8FD4B
:1040300000232B706B802370237E002B01D00BF0AC
:1040400009F80CF035FA1A4E3368D868FFF740FFCC
:10405000336805000633DB7F002B02D0E37D012BA4
:104060001BD0144B31331E78002E16D10CF0BEF845
:10407000012812D1EDB2012D0FD1F6230E4A5B00BB
:10408000D35CE418A37A012B07D102220B4B1A70E0
:104090000B4B1E7005F0E0F870BDFFF781FF0CF0D0
:1040A00041F908F049FBF7E774130020E0310020E4
:1040B00054110020FA130020581100206D13002025
:1040C0006A13002010B5002007F0ACFB002001F0BF
:1040D0006DFA0023034A1370034A9373D3750CF0EF
:1040E00021F910BDB81300207413002010B5002072
:1040F00007F07EFB002007F095FBF623044A5B00E7
:10410000D05C002107F0FEFB002001F04FFA10BD4B
:104110005811002010B5002007F06AFB0F4B1B68F8
:1041200031331B78002B02D0012008F043FD03221D
:104130000B4B0A201A7000220A4B0B495A709A70D6
:104140001A715A719A710A70084AD870927D002AC1
:1041500003D00232DA71120A1A7210BD5411002013
:104160006A13002074130020B8130020FA130020F3
:1041700010B50E4CE37D012B0ED108F0A1FB237D81
:10418000002B06D0012001F08DFB96204000FEF7A9
:10419000E1FEFFF7BFFF10BD022BF0D101F0D0FA16
:1041A00001F09AFE01F09EFAE9E7C046FA130020FA
:1041B00070B5294B5A79002A4AD0284D28332A68ED
:1041C00010021A780A235343000C98420EDA032196
:1041D000FEF748F889B2224C00293AD12378002B07
:1041E00004D1022007F004FB012323702B681C027A
:1041F000240C2DD1AB7F012B11D12100200001F027
:104200002FFA200001F016FA01F098FD200001F0CD
:10421000CDF9200007F0B6FBAC7702F083F8FFF78A
:10422000A7FF01220F4B00201A7001F061F8F6235E
:104230000D4A5B00D05C002107F064FB002001F018
:1042400009F9292007F00CF8FFF7AAFE04F0B4FEE4
:1042500070BD0023C9E7C046FA1300207413002084
:10426000461000206D1300205811002070B5354D08
:104270002878042824D8FDF751FF0324234842005E
:10428000FFF734FF01F088FD96222F4B2F4C5B790E
:10429000534363701B0AA37001232B7008F0D4F8FA
:1042A00000280DD10334E37F0630002B06D1284BC4
:1042B0001B680533DB7F012B02D1082008F0A2FB2D
:1042C00070BDFFF775FF234B1B78002BF8D11F4BF8
:1042D0005B681B021B0CF3D101F05EFF0028EFD0DE
:1042E0001B4B1B6831331A7802231A4204D01A4A36
:1042F0009079184008F086FBFFF73AFFE0E70520C9
:1043000008F080FB01232B70DAE7104B1C7ADA7976
:1043100024021443D4D1200000F0EAFF200001F071
:1043200099F80BF0FFFF04F0F1FEF6230B4A5B0057
:10433000D05C210007F0E6FA0122094B2C701A70BC
:10434000BEE7C0466A130020FA1300207413002051
:1043500054110020F02F0020FA2F002058110020C7
:104360006D130020F8B51C4B1B78012B2DD11B4B76
:104370001C78022C29D11A4B1A4DDE7D012E25D135
:1043800001F002FDF623184A5B00D25C174B920045
:104390009918CF789C46002387420DD88F78330038
:1043A000874209D849782300814205D863469A5C40
:1043B000002390425B4103332A789A4205D0DCB255
:1043C0000121200004F086FF2C70F8BD2B78FF2B14
:1043D000FBD0FF232B70F8E76D130020B8130020EB
:1043E00074130020C004002058110020FC1501089F
:1043F00010B5002007F016FA002001F0D7F80020D1
:1044000007F0C0FA00230A210A4C0B4AA373137069
:10441000E375E170237108F0F5FB002801D10CF081
:1044200047F82378062B03D00BF07CFF04F06EFED8
:1044300010BDC04674130020B8130020104B10B5F7
:104440001B780120072B0FD00E4B1B689A6912793D
:10445000002A03D10333DB7F002B05D001F0A0FA43
:10446000094A002801D1107010BD137800200133D3
:10447000DBB2022B01D81370F6E710700120F3E7CE
:10448000741300205411002045100020F8B506F0E8
:10449000A9FE00280CD1A04B1C78002C08D19F4EFF
:1044A0003378012B36D0002B03D0022B00D1A4E0AF
:1044B000F8BD9B4C2378072B15D19A4B36331878CF
:1044C0000BF02AFD237E002B10D0012007F0AAF963
:1044D00001F034FC012001F069F8012007F052FAE4
:1044E00003233370E4E701F0CFFAEBE78E4B5B7800
:1044F000002B04D12378002B01D10BF0C7FF0BF068
:10450000F5FF0023894AA373E375E37323741370E3
:104510000133337001F054FD844D0700012855D15B
:104520002B780133DBB22B70022BC1D90BF0FAFED2
:104530000BF0DCFF7A4C3800A77307F073F923788F
:10454000072B19D0FFF77AFF0028B1D0784B1B68F2
:104550000533D87F01280FD1EC237649FF33764A03
:10456000CB5CD3182C331B78002B05D12B3213785E
:10457000002B9DD008F01EFB00232B70694B3033BD
:104580001B78002B03D12378022B00D190E708F091
:104590008BFE2378002B01D104F02CFF07F082F969
:1045A000012001F003F82378062B02D0012007F048
:1045B000E9F9012200231421E275A2735F4A2374F2
:1045C00013705F4AE173137002338AE70020544C82
:1045D0002870A37B012B02D1A07307F023F9237865
:1045E000042B00D164E704229343022B00D15FE740
:1045F0000BF0F8FE0BF080FF5AE701F0E1FC4B4AAC
:10460000002810D11378002B02D0013B13704FE724
:10461000434A137AD1791B020B4301D1FFF7E8FE1D
:104620000BF080FE44E701262000167008F0C2FA65
:104630003F4B1B689B691B79002B44D001F098F914
:10464000002816D03D4B1E703D4B1978002900D034
:104650002EE70A20324A1E70137A1174D1791B0298
:10466000D0730B43002B00D022E7002007F08AF91B
:104670001EE7FFF7E3FE2A4B01281DD1EC222D494E
:10468000FF32895C2C4A52182C321278002A13D13E
:104690001A7CD97B12020A4300D009E727490A781D
:1046A000002A00D004E7087008211A74D973DA7957
:1046B0001B7A8B401343D5E7002214201F49D8737F
:1046C0000A701A74F4E601F053F9154C1B4D0028DA
:1046D0000CD01B4A2E701378002B07D116700822BD
:1046E0002374237AE2731B02E279E3E72B78012B30
:1046F00005D02378062B02D0012007F043F9237C54
:10470000E27B1B02134300D0D2E62B78012B00D0B2
:10471000CEE6FFF76DFECBE6F02F0020B8130020A9
:1047200074130020FA1300203732002047100020B5
:1047300054110020581100200630002044100020A1
:104740004810002010B5064B1B78012B04D0022B1B
:1047500001D1FFF78BFD10BDFFF798FEFBE7C046C8
:104760006D130020BFF34F8F024B034ADA60BFF393
:104770004F8FFEE700ED00E00400FA0510B5034A94
:1047800000210348FDF78AFE10BDC0461A04000050
:104790008C14002070B504004518AC4200D170BDE7
:1047A000207806F0EFFE0134F7E70000FA2310B599
:1047B0001B4A1C4CDB00E38013780B2B0DD18221AC
:1047C000A388C900E2185072581CFDF735FE052376
:1047D000A18023720023637015E0A378002B13D10E
:1047E000114B522807D11978502909D10121A17004
:1047F0000931117004E04F2802D119785229F5D0FF
:1048000018700023A38010BDA3889021E218507275
:10481000581CFDF711FE0123A180E370DAE7C046C2
:10482000741300208C14002089100020054AD388BE
:10483000002B06D0013B9BB2D380002B01D1033368
:10484000137070478C14002010B5062006F09AFEF5
:104850000022014B9A8010BD8C14002070B586B0E8
:1048600015221248694601F08AFE012300221D002C
:104870000F4C1048102B06D821002E00D9408E4333
:1048800001D10133DBB26E46F65C0133511CDBB261
:104890008218C9B25672142B06D91021818006489D
:1048A000FFF778FF06B070BD0A00E3E730F20000C2
:1048B000208401008C14002095140020002310B5E2
:1048C0000D4A91888B420FD3C91A002007290ADDAF
:1048D0000133D9B2094809315118043007220BF0CD
:1048E00014FF4342584110BDD018407A4728EBD0FE
:1048F0000133DBB2E6E7C0468C14002058160108ED
:1049000070B54949494E8C7ACB7A2402E418A4B296
:10491000002850D0464D0D31402228000BF004FFF6
:10492000B44238D018D880231B029C4224D0902354
:104930001B029C4229D0230502D1200001F09AFEDF
:1049400040222900200001F06BFE3A4B9C421BD113
:104950006A7D394B1A700CE0C0231B029C4222D0A6
:10496000D0231B029C42E6D10522290032480BF0DD
:10497000DBFE02F021FA07E0402229002F480BF06D
:10498000D3FEFF2002F000F970BD402229002C4820
:104990000BF0CAFEF8E7102229002A480BF0C4FEEB
:1049A00002F052F8F0E74022290027480BF0BCFE45
:1049B00002F0A4FBE8E7254DB44229D014D88023A7
:1049C0001B029C421BD090231B029C421DD0402204
:1049D0002900200001F0D3FD164B9C42D4D1164B88
:1049E0001A78134B5A75CFE7C0231B029C4217D08D
:1049F000D0231B029C42EAD105220F4903E002F0BA
:104A00002DF940220D492800C2E740220C49FAE75F
:104A10003022FF210E48FDF741FD10220949F2E73F
:104A200040220949EFE7C0468C1400204090000066
:104A30004910002040F20000AC180020B8100020FF
:104A4000FA130020FA100020B91300209914002056
:104A5000A914002070B5FFF749FB03F01DFF0023E8
:104A600003253B4C23703B4B1A78002A03D00022CD
:104A70001A70FFF7DBFEE3782078002B50D000237C
:104A80000138E370032842D8FDF73EFB0216EDED36
:104A9000637A462B06D1FFF7E1FE0023A3800233A1
:104AA0002370E0E7442B2FD10B222B4B1A700023ED
:104AB000A370A380E38070BD637A522B11D1A388C9
:104AC000032BD0D90020FFF71BFF217B23480431A3
:104AD000A180FFF75FFE00230220A38006F088FE7E
:104AE000C1E7572B0BD1A388432BBCD90120FFF77B
:104AF00007FFFFF7A9FE022006F094FEB3E7452B5F
:104B000002D12570FFF7A0FE0023A380ABE7FFF7DB
:104B1000D5FE06000128A6D1FFF796FE2670A2E773
:104B2000042807D1237063780133DBB26370022B52
:104B300099D925702378032B00D094E7002006F044
:104B400057FE002006F06EFE0023A380FFF70AFE4A
:104B50008C140020501100207413002095140020A4
:104B6000A52310B50F4CA37380235B042361072397
:104B7000E07321750C480621A38100F05DF9A3893B
:104B8000010AE2189173991C01339BB2E31889B2B0
:104B900098730648A181FFF7FDFD0023044AA38115
:104BA000D38010BD3C1400204B1400204A14002078
:104BB0008C14002070B5114C0121637AA52B14D1FF
:104BC000637BA17B1B02C91889B262180C4ED37B90
:104BD000157C71811B020531ED1889B20948ADB20F
:104BE00000F02AF9854205D00421EE20FFF7B8FF36
:104BF000012070BDA37A00203370FAE78C140020E6
:104C00003C14002096140020F0B5042685B0320034
:104C1000504951480BF088FD504C514D2278A681E7
:104C2000B2423ED022D8032A33D0A389042B05D127
:104C30000333A381F9336382A73B2375A1894948D4
:104C4000013989B200F0F8F8A389010AE2189173DA
:104C5000991C01339BB2E318987389B23E48A18135
:104C6000FFF798FD0023A381EB8010E0062A00D116
:104C70006EE0572AD9D1EA7A2B7B12029B1822893F
:104C80009BB29A4258D00621EE20FFF769FF05B08B
:104C9000F0BD3200344935480BF046FD0023238136
:104CA000C3E763892E7B002B08D02F4903A80BF0A4
:104CB0003BFDEA7C2B7D12029B189FB2022E10D185
:104CC000002309E0039E300001F0D4FC019B013673
:104CD000FF3601330396DBB20193019BBB42F1D354
:104CE000A3E7032E11D100230AE0039E300001F058
:104CF000E5FC80231B02F618019B03960133DBB20F
:104D00000193019BBB42F0D38FE700230193042E54
:104D10000ED001F027FD88E7039E300001F0F6FC7D
:104D200080235B02F618019B03960133DBB20193EB
:104D3000019BBB42F0D378E762890B49606801F0C0
:104D40006FFC62686389D318636023890133A6E727
:104D5000FFF708FD951400204A1400203C140020A1
:104D60008C1400204B1400209B14002040140020C1
:104D7000F8B50B210023012702252B4C2B4A2C4E82
:104D8000237011702372E38073602A4B1A78002A13
:104D900015D000221A70E388934205D0013B9BB2E4
:104DA000E380934200D12570237A002B05D0013B8C
:104DB000DBB22372002B00D1E77006F0B9FCE37878
:104DC000002B19D00023E370FFF7F4FE002804D174
:104DD0002378002B04D0012B0BD00023A380D4E731
:104DE0003378022BF9D1592128002770FFF7B8FE3C
:104DF000F3E7FFF709FFF0E72278032A07D12370D2
:104E000063780133DBB26370022BBED9257023783F
:104E1000022BBAD1002006F0EBFC002006F002FDC8
:104E20000023A380FFF79EFC8C1400207413002045
:104E30003C1400205011002000221300F0B50C4F4C
:104E400094B2A14201D81800F0BD845C24026340F2
:104E500008241DB2AC4666465D00ABB2002E01DAF6
:104E60007D40ABB2013CE4B2002CF2D10132E7E765
:104E7000211000000F23F0B53824E0250340C918A5
:104E800089B24B0823406D008C082C402343072433
:104E90002140194380231B01194302260023134F8D
:104EA000C03DD21980180534FF3D80B21A002F0092
:104EB000324094460F40002A02D00022974203D18C
:104EC00062463A4300D00200013C6D005B08E4B248
:104ED000ADB25340002CE9D11B019BB249001B022B
:104EE0000B43034A5B081360F0BDC046BCFDFFFFE7
:104EF0008C1000208022154B12011B88F0B51A433C
:104F00008C460C240023012602213700194017404B
:104F1000002902D00025AF4206D139430D1E03D02F
:104F20006546002800D10A4D013C76005B08E4B2DA
:104F3000B6B26B40002CE7D11B019BB21B025200A2
:104F40001A43044B52081A60F0BDC046901000206E
:104F5000750C00008C100020F0B58024240104435F
:104F600000230C200125022619002A00314022408E
:104F7000002902D00027BA4203D111430F1E00D0EE
:104F8000084F01386D005B08C0B2ADB27B4000280D
:104F9000EAD11B0198B2640000022043024B400892
:104FA0001860F0BD750C00008C100020F8B5224B85
:104FB00022491D68EB691E683000FDF7CDF8204BD3
:104FC0009E420CD99138FF380A21FDF7C5F8023509
:104FD000EB7F1C4AC4B29B009F58385DF8BD1A4B4A
:104FE0009E420AD95F38FF380521FDF7B5F8023532
:104FF000EB7FC4B29B00154AEEE7154B9E4209D9E0
:10500000C8380521FDF7A8F80235EB7FC4B29B0034
:10501000104AE1E7104B9E42DFD982380321FDF7A9
:105020009BF8C0B2041C0F2800D90F240235EB7F77
:10503000E4B29B00094ACFE754110020A08601008A
:10504000FF596202D80500207FC3C901CC050020AA
:10505000FF2C3101F00500203F5DC600E405002073
:10506000014B18787047C04694100020054B1A7801
:10507000824202D0062801D11870704707221A70A8
:10508000FBE7C046C1040020F7B50825802620278D
:1050900001900B4C019B27851E420DD04023A3613C
:1050A0000520FDF756FF013DA7610520FDF751FFE3
:1050B0007608002DEDD1F7BD40232385F0E7C046EB
:1050C00000040048F8B5082607000C000A4D05202A
:1050D0002E85FDF73EFF3800FFF7D6FF200AFFF7C9
:1050E000D3FFE0B2FFF7D0FFAE610520FDF731FF3F
:1050F00020232B85F8BDC046000400480A22424305
:10510000184B10B51888232192B2FFF7B3FE164C46
:105110002368DB435B025B0A2360144B9978144BD2
:105120001B680433DB7F002B01D01431C9B27F230D
:105130001940104B51201943FFF7C4FF0E490720B7
:10514000FFF7C0FF236808201905090DFFF7BAFF14
:10515000802321681B020902090D19430820FFF76B
:10516000B1FF10BDFC0500208C100020C2040020FF
:105170005411002080800000D70A000010B5040000
:10518000002902D0FFF7BAFF10BD124B5978124B1D
:105190001B680433DB7F002B01D00F31C9B27F23A2
:1051A000194090231B0219435120FFF78BFF0B4836
:1051B0000B496043FCF7D0FF81B20720FFF782FF65
:1051C00008490720FFF77EFF07495220FFF77AFFC3
:1051D000DAE7C046C20400205411002099260300DB
:1051E000A0860100CD2100009202000070B5234D81
:1051F000234C00293DD14004460C224B30001E8038
:10520000FFF7AAFE204B320019882B680333D87FA2
:10521000FFF770FE2B68DB69197903394B1E994142
:10522000A023494249031B02C9182A68174B0432BC
:10523000D27F9B78002A01D01433DBB27F22134047
:10524000194389B25120FFF73DFF11490720FFF7AD
:1052500039FF236808201905090DFFF733FF802364
:1052600021681B020902090D19430820FFF72AFFD4
:1052700070BD802120600902D7E7C046541100208C
:105280008C10002090100020FC050020C20400209B
:10529000D70A0000134B10B51B689A6910790128D2
:1052A0000FD99068A02302001B061A4000219A42E1
:1052B00004D1012143020C4A5B0A1360FFF796FFF9
:1052C00010BD0333D97F012803D19068FFF756FF43
:1052D000F6E7002904D0FA204000FFF70FFFEFE7C0
:1052E0000248F3E7541100208C1000202702000030
:1052F00013B50D4B6A460093FF23040093807F2172
:1053000000280DD0094B03211B6824020233D87FEB
:10531000FCF7A8FF6A46CBB25B00995A214389B2D9
:105320003620FFF7CFFE13BDFF00D7005411002039
:1053300010B5002910D0012924D10F231A40013AB9
:10534000D2B2062A2AD8164B5200D15A00281AD0B7
:10535000012817D1742013E00F231A40013AD2B26A
:10536000062A18D80F4B5200D15A0F4BD45A002896
:105370000BD0012806D14420FFF7A4FE21004520D0
:10538000FFF7A0FE10BD7520FAE75420FFF79AFE44
:1053900021005520F4E7054C0549E8E70549D5E724
:1053A0006E1601087C1601088A160108A931000052
:1053B000099000000BF5000010B500213020FFF728
:1053C00081FEE82137204901FFF77CFE10BD000077
:1053D00010B502493720FFF775FE10BD0F1D000004
:1053E00070B5154B05009A79102A01D908229A71D7
:1053F0009E79124B1249985D6843FCF7ADFE2C1A5A
:10540000082E00D94419A1B23820FFF75BFE210C09
:105410003920FFF757FE0B4B1B680133DB7F002B56
:1054200003D0094B1B78072B04D108494320FFF711
:1054300049FE70BD0649F9E7C2040020AC16010818
:10544000809698005411002074130020283000002A
:105450004840000010B5114B441E1B680133DB7F30
:10546000002B0ED1E3B2012B0BD880218900302014
:10547000FFF728FE032C0AD82000FCF74FFE040992
:105480000B0D0021F3E706493020FFF71BFE10BD8E
:105490000449F9E70449F7E70449F5E75411002006
:1054A000F1BF0000FEC1000002030000FAC30000CB
:1054B000F7B52F4B2F4D1B782F490093009A2F4B98
:1054C0009E5C2F4BB4B21B682C809B691F68380010
:1054D000FCF742FE2B4B9F4208D99138FF380A2136
:1054E000FCF7C4FE284BC0B21B5C1BE0274B9F425D
:1054F00007D95F38FF380521FCF7B8FE244BC0B24E
:10550000F2E7244B244AFB1893421FD88238052126
:10551000FCF7ACFEC0B2031C092800D909231F4ABE
:10552000DBB2D35C9E4207D91D4A0099E41A515C54
:105530002C80C91ACBB201932988019B0902194317
:1055400089B278202980FFF7BDFDF7BD154B9F423A
:1055500006D9C8380521FCF789FE134BC0B2C3E752
:10556000064B597A0D4B1B78CA1A2A800339E0E79B
:10557000FA13002092100020A0860100F2040020FF
:1055800054110020FF596202D20400207FC3C901D8
:1055900095100020C0A239FF3F4B4C00E2040020D0
:1055A000FF040020FF2C3101A51000200F2370B54F
:1055B000174A0340174C5B009B5A17492278050095
:1055C0001943062A03D1012801D114491943472060
:1055D000FFF778FD032D01D0F12D04D110494820AB
:1055E000FFF770FD70BD0F4B3F211B680133DA7F61
:1055F0000D4B002A06D1DB7819402378062B03D106
:105600000A49ECE71B79F7E7094B09011943E6E77B
:1056100098160108C10400204060000040660000A8
:10562000A2B8000054110020C2040020AAB3000058
:105630000F80000010B5084904002420FFF742FD48
:10564000012C03D105497020FFF73CFD80213F204C
:105650000901FFF737FD10BD7F8A0000E0E0000080
:1056600010B50C0001007120FFF72CFD2100722005
:10567000FFF728FD10BD000010B5C1215820FFF72D
:1056800021FDE0217020FFF71DFD0D497220FFF77D
:1056900019FD0C495C20FFF715FDF0215D20090183
:1056A000FFF710FD08495920FFF70CFD0749592065
:1056B000FFF708FD80213F208901FFF703FD10BDA2
:1056C00065300000655600002840000028100000EA
:1056D00010B500217020FFF7F5FC00215820FFF7DE
:1056E000F1FC10BD10B5FFF7F3FF10BD802170B5C0
:1056F000040009023F20FFF7E5FC0F495920FFF79E
:10570000E1FC250028215920FFF7DCFC1035218819
:105710005F200234FFF7D6FCAC42F8D1074959208C
:10572000FFF7D0FC9620FDF715FC28215920FFF744
:10573000C9FC012070BDC046288000002808000078
:1057400010B50F495820FFF7BDFC0E497220FFF736
:10575000B9FCB4217020FFF7B5FCD8215D204901C8
:10576000FFF7B0FC08495920FFF7ACFC0749592066
:10577000FFF7A8FCC0213F208901FFF7A3FC10BD63
:10578000C3370000653000002840000028100000EA
:10579000054B10B558430549FCF7DEFC81B271207A
:1057A000FFF790FC10BDC046FCC00F0010270000A2
:1057B00010B502493220FFF785FC10BD458200007C
:1057C00010B502493220FFF77DFC10BD4482000075
:1057D00010B5040009493720FFF774FC0020FFF7DB
:1057E00039FE2000FFF7FCFDC02151208900FFF7A2
:1057F00069FC0120FFF72EFE10BDC0460F1F000000
:1058000010B50020FFF726FEC02151208900FFF7C8
:1058100059FC0120FFF71EFE10BD00000823F7B55C
:105820001F4C050023850520FDF793FB80202026D3
:105830002843FFF729FC05202685FDF78AFB002277
:105840004021200005F02EFE40230520A361FDF736
:1058500080FB4023102700250193A661238A019A2B
:105860006D00ADB2134201D001231D430520FDF7A9
:1058700070FB013F26850520FDF76BFB002FECD167
:1058800001224021064805F00DFE08230520A361F2
:10589000FDF75FFB4023280023852685FEBDC0461B
:1058A0000004004870B505005220FFF7B7FFC4049C
:1058B000E40C002D20D0124B1B68DA691279012A02
:1058C00003D80333DB7F002B07D080231B021C434C
:1058D00021005220FFF7F6FB70BD0A4B512059788A
:1058E0007F23194090231B021943FFF7EBFB07208E
:1058F0000549FFF7E7FBEBE729005120F9E7C04630
:1059000054110020C20400207104000010B50020D2
:10591000FFF7C8FF144B1B68D9690A79002A16D013
:105920008868012A0ED9A02302001B061A40002114
:105930009A4204D1012143020C4A5B0A1360FFF72B
:1059400055FC10BD0333D97FFFF718FCF9E703338B
:10595000D97F002904D0FA204000FFF7CFFBF0E701
:105960005120FFF7AFFBECE7541100208C10002012
:1059700010B50C20FFF752FF084B1B689A6912798B
:10598000012A03D80333DB7F002B03D08023DB0005
:10599000184010BD80231B01FAE7C04654110020B7
:1059A00010B50C20FFF73AFF0A4B1B689A69127971
:1059B000012A06D80333DB7F002B08D18023DB00CC
:1059C00003E0032A03D180231B02184010BD80236B
:1059D000DB01FAE75411002070B5040033200D00FC
:1059E000FFF71CFF2302984300B282B2064B012D41
:1059F00006D114431C8019883320FFF763FB70BD68
:105A0000A0431880F7E7C0469210002070B50D0043
:105A100004003120FFF702FF184B194AED1802234A
:105A200095420BD8984381B23120FFF74BFB4020C1
:105A3000FFF7F4FE000B00039C2118E0002CF1D0CE
:105A4000184381B23120FFF73DFB231C032C00D902
:105A50000323DBB20B4A013B5B00995A7120FFF72D
:105A600031FB4020FFF7DAFE8A21000B0003C9005A
:105A7000014389B24020FFF725FB70BD80345BFFF6
:105A80007FB92A00A416010870B51E4E1E4933685E
:105A90009B691868FCF760FB80B2FEF7C5F93368B4
:105AA0001A4A9B6901201B689B18194A934200D926
:105AB0000020F624FFF7DAFA164D6400285D002175
:105AC00005F020FF14493720FFF7FCFA0020FFF70C
:105AD000C1FC33689B691868FFF782FCFFF7E8FC9C
:105AE000FFF7D8FB33689A690433D87F1168FFF752
:105AF0008DFF0120FFF7AEFC285D012105F002FFBC
:105B000070BDC046541100201027000080345BFF98
:105B10007FB92A00581100200F1F0000802170B5A6
:105B200009020020FFF7CEFA00210800FFF7CAFAA9
:105B30005E493720FFF7C6FA5D491320FFF7C2FA26
:105B40005C491220FFF7BEFA5B491120FFF7BAFA51
:105B50007A211020FFF7B6FA19211420FFF7B2FAC4
:105B600056494920FFF7AEFA55497B20FFF7AAFABC
:105B700054491920FFF7A6FA53492A20FFF7A2FA41
:105B80006F210920FFF79EFA50490920FFF79AFA82
:105B90004F490920FFF796FA4E490920FFF792FA7C
:105BA0004D490920FFF78EFA4C490920FFF78AFA80
:105BB0004B490920FFF786FA4A490920FFF782FA84
:105BC00049490920FFF77EFA48490920FFF77AFA88
:105BD00047490920FFF776FA46490920FFF772FA8C
:105BE00045490920FFF76EFA44490920FFF76AFA90
:105BF00043490920FFF766FA42490920FFF762FA94
:105C0000DB212120C900FFF75DFA3F497220FFF731
:105C100059FA3E495C20FFF755FAF0215D20090151
:105C2000FFF750FA4020FFF7F9FD9C21000B00031D
:105C3000C900014389B24020FFF744FA072400213C
:105C4000334D0800EA7A2240FFF772FB2A7B0121DC
:105C500022400020FFF76CFB6A7B002122400120DC
:105C6000FFF766FB0121AA7B08002240FFF760FBDB
:105C700028497D20FFF726FA27494820FFF722FA16
:105C800026491F20FFF71EFA25493E20FFF71AFA82
:105C900024497720FFF716FA23494F20FFF712FA1D
:105CA0009D2126204901FFF70DFA70BD0F1D000050
:105CB000BE0300007B0300007B020000382A0000C6
:105CC0002084000041100000184F00006B100000FD
:105CD0006720000062300000504000004750000084
:105CE0003A6000002C7000004180000037900000F6
:105CF00025A0000017B00000E4C00000CBD00000D9
:105D0000B5E000009FF0000065300000655600001F
:105D1000C204002052E90000BFB300005454000048
:105D200037A00000EF8800003237000010B53020A7
:105D3000FFF774FD8007C00F10BD000070B5002094
:105D4000FFF726FD00217020FFF7BCF9FFF7EEFFFB
:105D50000C4C01280FD10130FFF77CFB2368DB6975
:105D600000201D68FFF722FC236829000433D87F38
:105D7000FFF74CFE70BD0120FFF76CFB23689B69A9
:105D8000EEE7C0465411002010B56720FFF746FD2E
:105D90004008C0B210BD0000F7B5F6241F271E4D05
:105DA0006400285D002105F0ADFD0720FFF75EF9D6
:105DB0001A493720FFF786F90020FFF74BFB184EF2
:105DC0003368DB691868FFF70BFBFFF79FFD154B86
:105DD0007D20197839400191FFF720FD019BB843E0
:105DE00081B219437D20FFF76DF93368DA69043316
:105DF000D87F1168FFF70AFE0220FFF72BFBFFF7A1
:105E0000D5F880B2FFF774FA285D022105F07AFD1B
:105E1000012005F0EDFCF7BD581100200F1D00001A
:105E200054110020C204002010B52420FFF7F6FC16
:105E30002023984381B22420FFF744F900217020E9
:105E4000FFF740F9044B1B689A690433D87F116847
:105E5000FFF7DCFD10BDC0465411002010B53F20F7
:105E6000FFF7DCFC030501D4002010BD0C20FFF778
:105E7000D5FC01242042F7D002200021FFF722F9AF
:105E80002000F2E710B50B20FFF7C8FC0005000F5B
:105E900010BD10B53F20FFF7C1FC030000209B049C
:105EA00004D50C30FFF7BAFC0123184010BD70B5C3
:105EB0000500040010355F20FFF7B0FC208002349D
:105EC000AC42F8D100210220FFF7FCF80B20FFF7CD
:105ED000A5FCC006C00F70BD30B589B001AD1C2255
:105EE000244928000AF020FC80213F200902FFF706
:105EF000E9F821495920FFF7E5F828215920FFF753
:105F0000E1F81E495A20FFF7DDF81D495B20FFF735
:105F1000D9F81C495C20FFF7D5F800246300E95A42
:105F20005F200134FFF7CEF80E2CF7D101251420A5
:105F3000FDF710F859201449FFF7C4F81148BA3496
:105F4000284209D10520013CFDF704F8E4B20C20F9
:105F5000FFF764FC002CF3D100210220FFF7B2F818
:105F600000213F20FFF7AEF828215920FFF7AAF8BB
:105F700009B030BD0C1101082880000072FB000040
:105F80009940000030A700002808000010B5040068
:105F90007020FFF743FC09490140BC200002014387
:105FA0007020FFF78FF80420002C00D10320FFF7AA
:105FB00051FA0320FFF7FAFA10BDC046FF70000047
:105FC000064B10B51B780124002B04D00C20FFF7E2
:105FD00025FCE0400440200010BDC046FA1300201C
:105FE00010B50D20FFF71AFC030000201A0405D499
:105FF0005B050E305C09FFF711FC001910BD0000B5
:1060000070B56920FFF70AFC174C030421D4000582
:10601000050A6A20FFF702FC0223237000230521F2
:106020001A000005000D2843C5B2FF2D0CD1013226
:10603000D2B20139C9B20029F7D1032A01D8032B02
:1060400001D90020207070BD002DF2D10133DBB2E8
:10605000EFE76820FFF7E2FB0304F2D40123C0045A
:10606000C00C2370EFE7C0469410002070B5027892
:10607000437894B22500A43D98B2042D01D8A028FD
:106080001ED82500A13D082D0ED8A0280CD95E20D1
:10609000A13A4243A13BD018802340015B02C018C3
:1060A000202200F06CFA70BDB03C472C08D8A02824
:1060B00006D95E20B03A504318184001024BEEE773
:1060C00080204002ECE7C046A055010070B5027880
:1060D000437894B22500A13D98B2022D0ED8A02895
:1060E00014D95E20A13A4243A13BD218463850430E
:1060F0000D4BC018182200F042FA70BDA92C05D132
:10610000A02803D9182079335843F1E7B03C472C35
:1061100008D8A02806D95E20B03A42439B18D7334E
:106120004638F1E70048E5E780CF040010B5007875
:10613000203883B25E2B06D8044B0001C018102211
:1061400000F01DFA10BD0148F9E7C046C0B70400D1
:1061500010B50378203B9AB25E2A07D80C2058432A
:10616000034BC0180C2200F00AFA10BD0048F9E7F2
:10617000406D070010B50078203883B25E2B06D83A
:10618000044BC000C018052200F0F9F910BD014809
:10619000F9E7C046C0BF04009023DB05188A40051C
:1061A000C00F704710B5FFF7F7FF294C002808D142
:1061B00023780E3B022B04D8207002F0A7FFFDF7D6
:1061C00081FF23780C3B012B16D8FFF7E5FF002851
:1061D0000ED1204A13780133DBB2022B01D81370A1
:1061E00010BD237810700D2BFAD105F08BFCF7E76A
:1061F0000022184B1A70F3E7174B1B78022B07D1BC
:10620000164B1B78032B03D0154B1B78012BE7D1C2
:10621000FFF7C2FF041EEBD10E4A13780133DBB245
:106220001370022BDCD905F03DFB0AF07BF80C4B18
:106230001B78002B02D0200006F096F904F0D2FF64
:10624000002802D004F088FFCAE7FDF7DDFEC7E7AB
:1062500074130020B51000206D1300206A13002075
:10626000F02F002070B50024234B6500E95A234825
:10627000FCF7FDFB224B2148E95AFCF7FAFB05200D
:10628000FCF767FEC0251F48FCF7EEFB8021ED01FF
:106290000540C9011948FCF7E1FB402105431A48B4
:1062A000FCF7DCFBADB2194B400028431840184BFB
:1062B000984213D007D8174B984213D00134062CBC
:1062C000D2D1FF200DE0144B984210D0134B9842CE
:1062D000F4D1134BA4001C19E07802E0104BA40089
:1062E000E05C70BD0E4BA4001C196078F9E70C4B04
:1062F000A4001C19A078F4E7241801080004004841
:10630000301801080008004800140048036000002D
:106310000340000003200000016000000260000054
:106320000C180108FF22034B1A70034B1A7000224D
:106330005A707047FE050020A618002070B53E4D2B
:106340003E4C2B782370FFF78DFF24782870844211
:1063500001D0002070BD3A4A1378FF2C1DD1FF2BCD
:1063600003D10020374B1870F4E73749087800282C
:1063700003D03648007802280BD10020314908703C
:1063800033490B70022388704B70FF230130137068
:10639000E0E7002014700870DCE72A49FF2B0DD1DC
:1063A0002A4DFE3B2D7814700B70022D06D1002172
:1063B000274A5370147091701800CBE71478A042EC
:1063C00024D10B780133DBB20B70642B0ED115286E
:1063D000BFD8204A633BC240D207BAD503211C4A2A
:1063E000107051709370184A1370E5E7952BB0D96F
:1063F0008C230B70C31F012BABD80022144B5A7097
:10640000023218709A7001200F4BACE70E4B1B78CC
:10641000002B03D00D4B1B78022B07D10C4B002017
:106420001C70022498705C700870AEE70020FF2397
:10643000087013708EE7C046FF050020000600209C
:10644000FE050020B6100020B71000206D130020BC
:10645000A61800209707340010B5FFF76FFF00283B
:106460001CD004210E4BDA1CD970002353700D4B45
:10647000DB7E002B0ED00C4B1A78012A0AD9142A85
:1064800002D19A78012A05D0FF2200201A70987054
:1064900004F0B4FA05F006FA09F044FF10BDC04656
:1064A00074130020FA130020A61800200B4B9A78D2
:1064B0001878012A08D115280DD8094A105C002245
:1064C0009A70FF321A707047022AF8D10838424297
:1064D00050411F30F3E7FF20F1E7C046A618002027
:1064E000F617010870B501001048FCF701FC002404
:1064F00002210E48FCF701FC00280FD00B48FCF7E6
:10650000F9FB050080210948FCF7F7FB01280BD1B6
:106510000134074BA4B29C42F4D104E00134044B93
:10652000A4B29C42E4D10025280070BD0030014097
:10653000B90B000070B590240425E40525850620DC
:10654000FFF7D0FFA56170BD70B53523022803D0D9
:10655000203B032800D0103B90240425E40525852A
:106560001800FFF7BFFFA520FFF7BCFFA56170BDB6
:1065700010B50120FFF7E8FF0123184010BDF8B562
:10658000902604230500F605338503200C00170030
:10659000FFF7A8FF280CC0B2FFF7A4FF280AC0B27B
:1065A000FFF7A0FFE8B2FFF79DFFE719BC4202D159
:1065B0000423B361F8BDA520FFF794FF20700134D8
:1065C000F4E70000F8B590260C0017000500FFF76F
:1065D000B1FF0423F60533850220FFF783FF280C63
:1065E000C0B2FFF77FFF280AC0B2FFF77BFFE8B217
:1065F000FFF778FFE719BC420BD10423074CB361C6
:10660000013CA4B2002C03D0FFF7B2FF0028F7D161
:10661000F8BD2078FFF766FF0134ECE71127000092
:106620008023F7B55B00C5B25D1BADB206000F005D
:10663000140095421CD22A00FFF7C4FFAE197B1943
:106640008027641B350001937F00019B991B49192A
:10665000BC4208D928003A00013C0135FFF7B2FFDF
:10666000FF3CFF35F1E72800A2B2FFF7ABFFF7BD13
:1066700092B2FAE770B5902504260400ED05FFF705
:1066800059FF2E852020FFF72DFF200CC0B2FFF709
:1066900029FF200AC0B2FFF725FFE0B2064CFFF742
:1066A00021FFAE61013CA4B2002C03D0FFF760FFD4
:1066B0000028F7D170BDC04661EA000070B5902592
:1066C00004260400ED05FFF735FF2E855220FFF765
:1066D00009FF200CC0B2FFF705FF200AC0B2FFF788
:1066E00001FFE0B2FFF7FEFEAE61FA25064C6D0039
:1066F000013CA4B2002C06D02800FCF72AFCFFF7CE
:1067000037FF0028F4D170BD61EA000070B5902514
:1067100004260400ED05FFF70DFF2E85D820FFF7B6
:10672000E1FE200CC0B2FFF7DDFE200AC0B2FFF789
:10673000D9FEE0B2FFF7D6FEAE610520FA25FCF7E0
:1067400009FC074C6D00013CA4B2002C06D02800C7
:10675000FCF7FFFBFFF70CFF0028F4D170BDC0462B
:1067600061EA000070B590240425E405FFF7E2FE1D
:106770002585C720FFF7B6FEA5616420FCF7EAFB7C
:10678000F135064CFF35013C002C06D02800FCF703
:10679000E0FBFFF7EDFE0028F5D170BD0187930304
:1067A0009023042210B50E4CDB0586B09A612000C0
:1067B000FCF74EFA82235B0401930A4B01A9029372
:1067C000094B200003930823049300230B82FCF75A
:1067D00061FA01212000FCF781FA06B010BDC04625
:1067E00000300140000702000100000270B50020E7
:1067F00088B0FFF763FF1822002102A8FBF74EFEC6
:1068000006236A4600240126D373E0B21421FBF765
:1068100029FD6B4619730B4BE100C9180822684625
:10682000650109F081FF0F2C01D96B469E73202270
:10683000694628000134FFF7F3FE152CE5D108B0B6
:1068400070BDC0463C18010810B5FFF7CFFFF82314
:10685000A021034A5B004903D15000F03DFA10BD6E
:106860005811002070B5094C202520002A00084945
:10687000883009F059FF20002A000649A83009F0A5
:1068800053FF042000F080F970BDC046581100206D
:106890003C1901085C19010830B585B010220021AF
:1068A0006846FBF7FBFD40221C491D4809F03CFFF0
:1068B0001022FF211B48FBF7F1FD00F0C5F8A020D6
:1068C0000002FFF7D7FEA020102217490002FFF7B1
:1068D000A7FE08221549684609F026FF0124144D39
:1068E000092C0DD86B461C7101342800082269461A
:1068F000E4B2FFF795FE1035152CF1D105B030BD8F
:106900000A212000FBF7AEFC6B46200019710A211A
:10691000FBF722FC6B46D870E6E7C046FC1801087E
:10692000FA130020FA100020EC180108E4180108FE
:1069300020A00000F0B58026144CC509A5442D0305
:1069400076010F00019202A9320004002800FFF72F
:1069500016FE2800FFF78EFE7F20044002AB640184
:10696000E0183900142209F0DFFE200002AB1430D9
:10697000C01801990C2209F0D7FE320002A92800A4
:10698000FFF74EFE024B9D44F0BDC046F4EFFFFF03
:106990000C10000070B588B00C0006000021150036
:1069A00068462022FBF77AFDFA230F4A5B00D05A93
:1069B000694640012022FFF7E2FD142221006846CB
:1069C00009F0A3FE002807D121000C221431280071
:1069D00009F09BFE002804D02A0021003000FFF7B8
:1069E000A9FF08B070BDC0465811002037B5082572
:1069F00004002A0000216846FBF750FD2A006001D0
:106A00006946FFF70DFE37BDF0B589B08AB20C00BC
:106A10006946FFF7B4FD00250126EBB2A34201D37E
:106A2000FF2007E06A463100575D0022394203D05B
:106A3000D800801809B0F0BD01324900D2B2C9B205
:106A4000082AF3D10135E8E7F0B56025AFB02A0098
:106A5000002116A8FBF722FD902006210002FFF777
:106A6000D3FF40222649C4B216A809F05DFE1022C9
:106A7000244926A809F058FE5E2116A8FEF7DCF985
:106A8000B6236B4407001880282C31D828006043B7
:106A90001D4B0222C6186B469D1D1C4B2900C018B9
:106AA000FFF76DFD2B88BB4214D0300016A9603073
:106AB0006022FFF7B5FD6B46591D0723144A23409A
:106AC000D35C01220B709023E0081B02C018FFF773
:106AD000A7FD0BE0502202A93000FFF750FD502225
:106AE00016A902A809F011FE0028DED12FB0F0BDD2
:106AF00090200002FFF7BEFD2A0016A90248E6E733
:106B0000FA130020FA100020109000006E90000090
:106B10007C19010810B5602498B022000021684655
:106B2000FBF7BCFC902006210002FFF76DFFC0B20E
:106B300029281BD86043114B2200C0186946FFF773
:106B40001EFD5E235E216B4468461C88FEF774F9C7
:106B5000A0420BD140226946094809F0E5FD102208
:106B600010A9084809F0E0FD18B010BD90200002FF
:106B7000FFF780FDFFF790FEF6E7C046109000009B
:106B8000FA130020FA10002073B52F4D012839D1D7
:106B90002C002E4E203420223100200009F0B5FDBB
:106BA00000282ED020223100200009F0BDFD402118
:106BB0002800FEF741F96B46991D08802800022243
:106BC000403009F0B1FD802008210002FFF71CFFD2
:106BD000C4B23B2C30D84222601C50431C4B2900CD
:106BE000C018FFF71DFD6B46591D0723194A2340A6
:106BF000D35C01220B708023E0081B02C018FFF752
:106C00000FFD73BD00280BD1134C2022210028005A
:106C100009F07BFD0028F4D0202221002800C4E7E1
:106C2000FF28C4D020220C49280009F07DFD28004F
:106C3000202220300549B8E780200002FFF71AFD26
:106C4000422229000248DAE7B81000200012002092
:106C5000108000007C190108E011002073B50500C8
:106C6000802008210002FFF7CFFEC0B23C2823D8C5
:106C700042225043144C154B2100C018FFF77FFCF3
:106C80006B4621009E1D40310222300009F04CFD70
:106C900040212000FEF7D0F8338883420CD1012D2B
:106CA00006D1210020220A48203109F03DFD73BDA4
:106CB000202221000748F8E780200002FFF7DAFCD5
:106CC000FFF7D0FDF3E7C046B810002010800000A9
:106CD00000120020E011002030B587B002AD102274
:106CE00000212800FBF7DAFBE02020210002FFF75B
:106CF0008BFEF823154A5B00D35A04000E212800AE
:106D00002B80FEF799F8E881FC2C17D8104B29004E
:106D1000E01800011022FFF783FC6B46D91D072302
:106D20000C4A2340D35C01220B70E023E408A0B29C
:106D30001B02C018FFF774FC07B030BDE020000252
:106D4000FFF798FC102229000348F3E758110020B0
:106D5000030E00007C19010820E0000030B585B06A
:106D6000102200216846FBF799FBE0202021000259
:106D7000FFF74AFE0E4CFD2815D80E4B6946C01889
:106D800000011022FFF7FBFB6B460E216846DD89F0
:106D9000FEF752F8A84206D16B461A88F8235B002A
:106DA000E25205B030BDF82300225B00E250F8E764
:106DB00058110020020E000030B587B002AD10223D
:106DC00000212800FBF76AFBD02020210002FFF7FA
:106DD0001BFE052215490400280009F0A5FC0E2120
:106DE0002800FEF729F8E881FC2C17D8104B290061
:106DF000E01800011022FFF713FC6B46D91D072392
:106E00000C4A2340D35C01220B70D023E408A0B2CB
:106E10001B02C018FFF704FC07B030BDD0200002F1
:106E2000FFF728FC102229000348F3E7AC180020E4
:106E3000030D00007C19010820D0000030B585B09A
:106E4000102200216846FBF729FBD02020210002F8
:106E5000FFF7DAFD194CFD2815D8194B6946C01803
:106E600000011022FFF78BFB6B460E216846DD897F
:106E7000FDF7E2FFA84206D105226946200009F08D
:106E800053FC05B030BD052200212000FBF706FBB6
:106E9000102200216846FBF701FB0E216846FDF732
:106EA000CBFF6B46D881D0200002FFF7E3FB102216
:106EB00069460448FFF7B4FBE3E7C046AC1800207E
:106EC000020D000020D00000F020F0B58DB002AB24
:106ED000DC1D012221000002FFF751FB2378FF2B6C
:106EE00042D0F020102267490002FFF748FB102231
:106EF00065496648FFF743FB102265496548FFF77F
:106F00003EFB102264496548FFF739FB10226449B3
:106F10006448FFF734FB102263496448FFF72FFBF6
:106F20000A2263496348FFF72AFB0A226249634841
:106F3000FFF725FB102262496248FFF720FB102271
:106F400061496248FFF71BFBF120102260490002F3
:106F5000FFF715FB10225F495F48FFF710FB102277
:106F60005E495F48FFF70BFBFFF768FF5D4B5E4E26
:106F70001B783200190030393832052900D97FE0FA
:106F80000F210B4004AD137058491022280008ACA3
:106F900009F0CAFB08225649200009F0C5FB02236C
:106FA000FF337381013BFF3B33730F2000230A261D
:106FB000E95C0A09724301405218EA540133102B6C
:106FC000F6D1FA226F78AB78920073435743FF18DB
:106FD000484BBFB21F80E87829795043714340186D
:106FE000454980B258804F4348431F615861AF798B
:106FF000E879574370433F18BFB29F80287A4F43C8
:1070000050430190687A9F617043844601986044C0
:1070100080B2D8804843D861E87A2F7B50437743C9
:10702000C01980B218816F7BAD7B7A436E43921991
:1070300092B25A814A430A255A620F2600224843D7
:107040001862A75C380968433740C019A054013260
:10705000082AF6D1FA206278A67880006E4342436F
:10706000921992B29A81E678247970436C4304199C
:10707000A4B24A436143DC819A62D9620DB0F0BD8B
:1070800000237FE71C0500202C05002010F00000E5
:107090003C05002020F000005C05002080F000008E
:1070A0006C05002090F000007C050020A0F000009E
:1070B000F2040020C0F00000FF040020D0F0000027
:1070C000D2040020E0F00000E2040020F0F0000014
:1070D000A51000209510002010F10000C20400202F
:1070E00010F20000AC18002074130020841901086D
:1070F00094190108B418002010270000F0B54225AB
:10710000A5B02A00002102A8FBF7C8F9C020082179
:107110000002FFF779FC40222449040002A809F08C
:1071200003FB402102A8FDF787FE0A236B440700FA
:10713000D8873B2C32D8280060431D4B0222C6184A
:107140006B469D1D1B4B2900C018FFF718FA2B88B2
:10715000BB4215D0300002A942304222FFF760FA4C
:107160006B46591D0723144A2340D35C01220B7040
:10717000C023E408A0B21B02C018FFF751FA0BE0CD
:10718000402213A93000FFF7FAF9402202A913A800
:1071900009F0BBFA0028DDD125B0F0BDC020000207
:1071A000FFF768FA2A0002A90148E6E7B9130020B0
:1071B00010C0000050C000007C19010830B5422505
:1071C00093B02A00002101A8FBF768F9C02008212C
:1071D0000002FFF719FC1A4C3C2816D86843194BDB
:1071E0002A00C01801A9FFF7CAF96B4640210633EF
:1071F00001A8DD8FFDF720FEA84206D1402201A99B
:10720000200009F091FA13B030BD79222270763A4D
:107210006270220000233E32137022003F3213704E
:107220002100402201A809F07FFAC0200002FFF7E8
:1072300021FA422201A90348FFF7F2F9E3E7C04629
:10724000B913002010C0000070B5060003F0EAFA80
:10725000202003F05CFB0400051E0BD003F0F9FABC
:10726000200070BD054BE85C03F051FB01350400C4
:107270000128F3D0AE42F5D1F0E7C0460106002068
:1072800010B503F0CFFA212003F041FB041E03D117
:107290000421034803F091FB03F0DBFA200010BD4A
:1072A00001060020402110B5054B02201A788A43C0
:1072B0001A705A783F398A435A70FFF7C5FF10BDDC
:1072C0000106002010B5D2241148124B4188124A01
:1072D000CB1814709BB26D3C54706D2B13D91823CE
:1072E000D3700E4BC9188BB2002141709908917070
:1072F000D1789B010B430820D370FFF7A5FF012035
:1073000004F040FB10BD1C21D1701B39EDE7C046D5
:10731000B831002076FDFFFF0106002008FDFFFFC9
:10732000D32210B5034B02201A706E3A5A70FFF741
:107330008BFF10BD0106002010B5FFF7A1FF00284C
:1073400019D10E490A78530614D58B7801300342BF
:1073500010D00B48497843785C4263416E245B420D
:107360002340084C1B190324224012028A189B1840
:107370004380022010BD0020FCE7C046010600202B
:10738000B83100208A0200000138C0B2FF2800D1C5
:107390007047C046C046F7E7802370B5114C5B01CB
:1073A0002385114A114B05001A850A20FFF7ECFFCF
:1073B00002210F48FBF7A1FC0028F9D029000C4856
:1073C000FBF796FC80210A48FBF797FC0128F9D0CF
:1073D0000A20FFF7D9FF80235B01A3610A20FFF792
:1073E000D3FF70BD000400480080FFFF0008004884
:1073F0000038004010B5040002210848FBF77DFC6E
:107400000028F9D021000548FBF772FC80210348D1
:10741000FBF773FC0128F9D010BDC04600380040CE
:1074200070B50F25B02328400C001843FFF7B4FFB8
:10743000102023091843FFF7AFFF20002840FFF773
:10744000ABFF70BDF8B507000025E8B20021FFF7DB
:10745000E7FF802380220D4C5B0123850C4B120239
:107460009A610A20FFF790FF84263800013EFFF75B
:10747000C1FF002EF9D10135082DE6D10A20FFF712
:1074800083FF80235B01A361F8BDC0460004004870
:107490000008004870B58025204C6D0025850A2025
:1074A000FBF758FDA5616420FBF754FDE220FFF7D0
:1074B00073FF6420FBF74EFD2C20FFF76DFF0A20C1
:1074C000FBF748FD2E20FFF767FF0A20FBF742FD80
:1074D0002F20FFF761FF0A20FBF73CFD2320FFF779
:1074E0005BFF8120FFF758FF2620FFF755FFA22002
:1074F000FFF752FFA120FFF74FFFC020FFF74CFF1F
:107500004020FFF749FFAE20FFF746FF0020FFF7BE
:1075100099FFAF20FFF740FF70BDC0460004004850
:1075200013B5094B6A46009333230400137181207D
:10753000FFF732FF231C042C00D904236A46DBB278
:10754000D05CFFF729FF13BD25292D30F0B58FB092
:10755000944614AA049102CA127809910A9216AAB2
:1075600012780B92002B33D06246002A30D0C2082A
:1075700002920122072411000440A1400139C9B23E
:10758000082005911100001B81400139C9B2069104
:10759000110099400139C9B203916946097B150070
:1075A00049B20791210008395918C9B28D40694282
:1075B00049B2089102990D92CD0104996D182349A1
:1075C0006918019100211D190C95CAB2944501D882
:1075D0000FB0F0BD00220A9D954201D1099A525C7C
:1075E0000B9D012D01D1D243D2B2049D4E19802EA4
:1075F000EED0019D27006E5C984206DC059D2E4072
:1076000006E00D9DBD400137AE430C9DBD42F8D153
:10761000069F1740984201DD079D2F40A740019D1E
:1076200037436F5498420EDA029D062D0BD80E0098
:10763000019D8036AE19039D37782A400241089D8E
:107640002F403A4332700131BFE7C046E4180020B2
:10765000F0B587B01F000CAB1B7805000491160035
:107660000593002F17D0002A15D0FC080134059B84
:107670000293012C11D001230193002300930833BE
:10768000013C2800320004990835E4B2FFF75EFFA0
:10769000EDB2002CEBD107B0F0BD0023009307330F
:1076A00001943B40ECE7F0B58BB01F0010AB160027
:1076B00004CB05001B78079109920893002F27D06F
:1076C000002E25D0B3B2FC08013406930593069A28
:1076D000059B9B1A099A9BB2D318089A00930292B1
:1076E000002208230192012C01D107233B403200E4
:1076F00028000799FFF72AFF069A059B9446013C4C
:10770000634408359BB2E4B2EDB20593002CDED1A0
:107710000BB0F0BDF7B50024154F04212000FFF792
:107720007FFE802380220026124D5B012B85124BA9
:1077300012029A610A20FFF727FE104B2A330193A9
:10774000019BB85D1B78002B01D0C043C0B201364D
:10775000FFF750FE802EF3D10134E4B28037082CBD
:10776000DBD10A20FFF710FE80235B01AB61F7BD80
:10777000E41800200004004800080048FA13002024
:1077800070B504210020FFF74BFE802380220025E6
:107790000E4C5B0123850E4B12029A610A20FFF703
:1077A000F3FD0C4E2A360C4B585D3378002B01D07C
:1077B000C043C0B20135FFF71DFE802DF3D10A2072
:1077C000FFF7E2FD80235B01A36170BD0004004868
:1077D00000080048FA130020E4180020F7B501243F
:1077E000154F04212000FFF71BFE80238022002676
:1077F000124D5B012B85124B12029A610A20FFF792
:10780000C3FD104B2A330193019BB85D1B78002BFD
:1078100001D0C043C0B20136FFF7ECFD802EF3D19A
:107820000134E4B28037082CDBD10A20FFF7ACFD2D
:1078300080235B01AB61F7BD6419002000040048A0
:1078400000080048FA13002010B5802200210248E9
:10785000FAF724FE10BDC046E4180020E02210B55F
:10786000920000210148FAF719FE10BD64190020AA
:10787000802210B5D20000210148FAF70FFE10BD9A
:10788000E418002070B50126644A654C1378013372
:10789000DBB21370634B1E701378092B00D8A6E07F
:1078A00000231370604B614D1E702B789B19DBB267
:1078B0002B7008F03FF928780521C0B2FAF7D2FC06
:1078C000C9B2002904D12B78002B01D0584B1E706F
:1078D0002B78092B00D88AE00021564A29701378AA
:1078E00055480133DBB2137001230370107804286C
:1078F00002D91170514A1370514B1A681202120CBE
:1079000004D0013A92B25A70120A9A704D494A88CC
:10791000002A01D0013A4A8021002C310A78002A3D
:1079200001D0013A0A7021002D310A78002A01D0D5
:10793000013A0A70A27E002A01D0013AA2761A7892
:1079400002211000884301D0072A04D19A8B002A13
:1079500001D0013A9A831A7CD97B12020A4304D0DF
:10796000013A92B2DA73120A1A741A7AD9791202A7
:107970000A4304D0013A92B2DA71120A1A721A7DDD
:10798000D97C12020A4304D0013A92B2DA74120A84
:107990001A752D494A88002A05D02C4800780128FC
:1079A00001D1013A4A802A490A78002A01D0013AD5
:1079B0000A70284A918A002901D001399182D18A1E
:1079C000002901D00139D1821A79D97812020A43EB
:1079D00004D0013A92B2DA70120A1A715A6812028D
:1079E000120C04D0013A92B25A71120A9A711A4AD0
:1079F0005388002B03D05388013B9BB2538004F083
:107A00000FFD164A9378002B01D0013B9370E38A57
:107A1000002B01D0013BE38270BDC0466C130020F7
:107A200006300020501100206F1300206E1300203C
:107A300072130020711300206B130020B01300207C
:107A40007413002028320020E03100206D13002044
:107A500050130020C4310020481D00203732002080
:107A60000022054B002800D1704719780029F9D071
:107A700001381A7080B2F5E7501100201FB502AC32
:107A80002D2106222000FAF709FD094B2A205978FA
:107A90000023DAB2914208D8002322000093282163
:107AA0001033272002F01EFD1FBDE0540133F0E724
:107AB0005013002007B5FFF7DBFE094B094A1B7A7C
:107AC000012B00D0084A0023082114200093103312
:107AD00002F008FDFFF7D2FFFFF71CFE07BDC0460E
